{
  "contractName": "OHMCirculatingSupplyContract",
  "abi": [
    {
      "inputs": [
        {
          "internalType": "address",
          "name": "_owner",
          "type": "address"
        }
      ],
      "stateMutability": "nonpayable",
      "type": "constructor"
    },
    {
      "inputs": [],
      "name": "OHM",
      "outputs": [
        {
          "internalType": "address",
          "name": "",
          "type": "address"
        }
      ],
      "stateMutability": "view",
      "type": "function",
      "constant": true
    },
    {
      "inputs": [],
      "name": "isInitialized",
      "outputs": [
        {
          "internalType": "bool",
          "name": "",
          "type": "bool"
        }
      ],
      "stateMutability": "view",
      "type": "function",
      "constant": true
    },
    {
      "inputs": [
        {
          "internalType": "uint256",
          "name": "",
          "type": "uint256"
        }
      ],
      "name": "nonCirculatingOHMAddresses",
      "outputs": [
        {
          "internalType": "address",
          "name": "",
          "type": "address"
        }
      ],
      "stateMutability": "view",
      "type": "function",
      "constant": true
    },
    {
      "inputs": [],
      "name": "owner",
      "outputs": [
        {
          "internalType": "address",
          "name": "",
          "type": "address"
        }
      ],
      "stateMutability": "view",
      "type": "function",
      "constant": true
    },
    {
      "inputs": [
        {
          "internalType": "address",
          "name": "_ohm",
          "type": "address"
        }
      ],
      "name": "initialize",
      "outputs": [
        {
          "internalType": "bool",
          "name": "",
          "type": "bool"
        }
      ],
      "stateMutability": "nonpayable",
      "type": "function"
    },
    {
      "inputs": [],
      "name": "OHMCirculatingSupply",
      "outputs": [
        {
          "internalType": "uint256",
          "name": "",
          "type": "uint256"
        }
      ],
      "stateMutability": "view",
      "type": "function",
      "constant": true
    },
    {
      "inputs": [],
      "name": "getNonCirculatingOHM",
      "outputs": [
        {
          "internalType": "uint256",
          "name": "",
          "type": "uint256"
        }
      ],
      "stateMutability": "view",
      "type": "function",
      "constant": true
    },
    {
      "inputs": [
        {
          "internalType": "address[]",
          "name": "_nonCirculatingAddresses",
          "type": "address[]"
        }
      ],
      "name": "setNonCirculatingOHMAddresses",
      "outputs": [
        {
          "internalType": "bool",
          "name": "",
          "type": "bool"
        }
      ],
      "stateMutability": "nonpayable",
      "type": "function"
    },
    {
      "inputs": [
        {
          "internalType": "address",
          "name": "_owner",
          "type": "address"
        }
      ],
      "name": "transferOwnership",
      "outputs": [
        {
          "internalType": "bool",
          "name": "",
          "type": "bool"
        }
      ],
      "stateMutability": "nonpayable",
      "type": "function"
    }
  ],
  "bytecode": "0x608060405234801561001057600080fd5b506040516107703803806107708339818101604052602081101561003357600080fd5b5051600180546001600160a01b0319166001600160a01b0390921691909117905561070d806100636000396000f3fe608060405234801561001057600080fd5b50600436106100925760003560e01c8063a0b15ebf11610066578063a0b15ebf14610161578063a6c41fec14610169578063c4d66de814610171578063f00f848b14610197578063f2fde38b146101b457610092565b80626883ba146100975780632e1455621461011b578063392e53cd146101355780638da5cb5b1461013d575b600080fd5b610107600480360360208110156100ad57600080fd5b8101906020810181356401000000008111156100c857600080fd5b8201836020820111156100da57600080fd5b803590602001918460208302840111640100000000831117156100fc57600080fd5b5090925090506101da565b604080519115158252519081900360200190f35b610123610248565b60408051918252519081900360200190f35b6101076102e2565b6101456102eb565b604080516001600160a01b039092168252519081900360200190f35b6101236102fa565b6101456103cf565b6101076004803603602081101561018757600080fd5b50356001600160a01b03166103e3565b610145600480360360208110156101ad57600080fd5b5035610480565b610107600480360360208110156101ca57600080fd5b50356001600160a01b03166104aa565b6001546000906001600160a01b03163314610232576040805162461bcd60e51b815260206004820152601360248201527229b2b73232b91034b9903737ba1037bbb732b960691b604482015290519081900360640190fd5b61023e6002848461065f565b5060019392505050565b600080600060019054906101000a90046001600160a01b03166001600160a01b03166318160ddd6040518163ffffffff1660e01b815260040160206040518083038186803b15801561029957600080fd5b505afa1580156102ad573d6000803e3d6000fd5b505050506040513d60208110156102c357600080fd5b5051905060006102db6102d46102fa565b8390610525565b9250505090565b60005460ff1681565b6001546001600160a01b031681565b60008060005b6002548110156103c957600054600280546103b59261010090046001600160a01b0316916370a08231918590811061033457fe5b60009182526020918290200154604080516001600160e01b031960e086901b1681526001600160a01b0390921660048301525160248083019392829003018186803b15801561038257600080fd5b505afa158015610396573d6000803e3d6000fd5b505050506040513d60208110156103ac57600080fd5b5051839061056e565b91506103c281600161056e565b9050610300565b50905090565b60005461010090046001600160a01b031681565b6001546000906001600160a01b0316331461043b576040805162461bcd60e51b815260206004820152601360248201527231b0b63632b91034b9903737ba1037bbb732b960691b604482015290519081900360640190fd5b60005460ff161561044b57600080fd5b506000805460ff196001600160a01b03841661010002610100600160a81b031990921691909117166001908117909155919050565b6002818154811061049057600080fd5b6000918252602090912001546001600160a01b0316905081565b6001546000906001600160a01b03163314610502576040805162461bcd60e51b815260206004820152601360248201527229b2b73232b91034b9903737ba1037bbb732b960691b604482015290519081900360640190fd5b50600180546001600160a01b0383166001600160a01b0319909116178155919050565b600061056783836040518060400160405280601e81526020017f536166654d6174683a207375627472616374696f6e206f766572666c6f7700008152506105c8565b9392505050565b600082820183811015610567576040805162461bcd60e51b815260206004820152601b60248201527f536166654d6174683a206164646974696f6e206f766572666c6f770000000000604482015290519081900360640190fd5b600081848411156106575760405162461bcd60e51b81526004018080602001828103825283818151815260200191508051906020019080838360005b8381101561061c578181015183820152602001610604565b50505050905090810190601f1680156106495780820380516001836020036101000a031916815260200191505b509250505060405180910390fd5b505050900390565b8280548282559060005260206000209081019282156106b2579160200282015b828111156106b25781546001600160a01b0319166001600160a01b0384351617825560209092019160019091019061067f565b506106be9291506106c2565b5090565b5b808211156106be57600081556001016106c356fea264697066735822122001561e21b20d86bdf71550635433befd72b587e0f907ce0929b65468e4f86d9064736f6c63430007050033",
  "immutableReferences": {},
  "source": "// SPDX-License-Identifier: MIT\n\n\r\npragma solidity 0.7.5;\r\n\r\n/**\r\n * @dev Wrappers over Solidity's arithmetic operations with added overflow\r\n * checks.\r\n *\r\n * Arithmetic operations in Solidity wrap on overflow. This can easily result\r\n * in bugs, because programmers usually assume that an overflow raises an\r\n * error, which is the standard behavior in high level programming languages.\r\n * `SafeMath` restores this intuition by reverting the transaction when an\r\n * operation overflows.\r\n *\r\n * Using this library instead of the unchecked operations eliminates an entire\r\n * class of bugs, so it's recommended to use it always.\r\n */\r\nlibrary SafeMath {\r\n    /**\r\n     * @dev Returns the addition of two unsigned integers, reverting on\r\n     * overflow.\r\n     *\r\n     * Counterpart to Solidity's `+` operator.\r\n     *\r\n     * Requirements:\r\n     *\r\n     * - Addition cannot overflow.\r\n     */\r\n    function add(uint256 a, uint256 b) internal pure returns (uint256) {\r\n        uint256 c = a + b;\r\n        require(c >= a, \"SafeMath: addition overflow\");\r\n\r\n        return c;\r\n    }\r\n\r\n    /**\r\n     * @dev Returns the subtraction of two unsigned integers, reverting on\r\n     * overflow (when the result is negative).\r\n     *\r\n     * Counterpart to Solidity's `-` operator.\r\n     *\r\n     * Requirements:\r\n     *\r\n     * - Subtraction cannot overflow.\r\n     */\r\n    function sub(uint256 a, uint256 b) internal pure returns (uint256) {\r\n        return sub(a, b, \"SafeMath: subtraction overflow\");\r\n    }\r\n\r\n    /**\r\n     * @dev Returns the subtraction of two unsigned integers, reverting with custom message on\r\n     * overflow (when the result is negative).\r\n     *\r\n     * Counterpart to Solidity's `-` operator.\r\n     *\r\n     * Requirements:\r\n     *\r\n     * - Subtraction cannot overflow.\r\n     */\r\n    function sub(uint256 a, uint256 b, string memory errorMessage) internal pure returns (uint256) {\r\n        require(b <= a, errorMessage);\r\n        uint256 c = a - b;\r\n\r\n        return c;\r\n    }\r\n\r\n    /**\r\n     * @dev Returns the multiplication of two unsigned integers, reverting on\r\n     * overflow.\r\n     *\r\n     * Counterpart to Solidity's `*` operator.\r\n     *\r\n     * Requirements:\r\n     *\r\n     * - Multiplication cannot overflow.\r\n     */\r\n    function mul(uint256 a, uint256 b) internal pure returns (uint256) {\r\n        // Gas optimization: this is cheaper than requiring 'a' not being zero, but the\r\n        // benefit is lost if 'b' is also tested.\r\n        // See: https://github.com/OpenZeppelin/openzeppelin-contracts/pull/522\r\n        if (a == 0) {\r\n            return 0;\r\n        }\r\n\r\n        uint256 c = a * b;\r\n        require(c / a == b, \"SafeMath: multiplication overflow\");\r\n\r\n        return c;\r\n    }\r\n\r\n    /**\r\n     * @dev Returns the integer division of two unsigned integers. Reverts on\r\n     * division by zero. The result is rounded towards zero.\r\n     *\r\n     * Counterpart to Solidity's `/` operator. Note: this function uses a\r\n     * `revert` opcode (which leaves remaining gas untouched) while Solidity\r\n     * uses an invalid opcode to revert (consuming all remaining gas).\r\n     *\r\n     * Requirements:\r\n     *\r\n     * - The divisor cannot be zero.\r\n     */\r\n    function div(uint256 a, uint256 b) internal pure returns (uint256) {\r\n        return div(a, b, \"SafeMath: division by zero\");\r\n    }\r\n\r\n    /**\r\n     * @dev Returns the integer division of two unsigned integers. Reverts with custom message on\r\n     * division by zero. The result is rounded towards zero.\r\n     *\r\n     * Counterpart to Solidity's `/` operator. Note: this function uses a\r\n     * `revert` opcode (which leaves remaining gas untouched) while Solidity\r\n     * uses an invalid opcode to revert (consuming all remaining gas).\r\n     *\r\n     * Requirements:\r\n     *\r\n     * - The divisor cannot be zero.\r\n     */\r\n    function div(uint256 a, uint256 b, string memory errorMessage) internal pure returns (uint256) {\r\n        require(b > 0, errorMessage);\r\n        uint256 c = a / b;\r\n        // assert(a == b * c + a % b); // There is no case in which this doesn't hold\r\n\r\n        return c;\r\n    }\r\n\r\n    /**\r\n     * @dev Returns the remainder of dividing two unsigned integers. (unsigned integer modulo),\r\n     * Reverts when dividing by zero.\r\n     *\r\n     * Counterpart to Solidity's `%` operator. This function uses a `revert`\r\n     * opcode (which leaves remaining gas untouched) while Solidity uses an\r\n     * invalid opcode to revert (consuming all remaining gas).\r\n     *\r\n     * Requirements:\r\n     *\r\n     * - The divisor cannot be zero.\r\n     */\r\n    function mod(uint256 a, uint256 b) internal pure returns (uint256) {\r\n        return mod(a, b, \"SafeMath: modulo by zero\");\r\n    }\r\n\r\n    /**\r\n     * @dev Returns the remainder of dividing two unsigned integers. (unsigned integer modulo),\r\n     * Reverts with custom message when dividing by zero.\r\n     *\r\n     * Counterpart to Solidity's `%` operator. This function uses a `revert`\r\n     * opcode (which leaves remaining gas untouched) while Solidity uses an\r\n     * invalid opcode to revert (consuming all remaining gas).\r\n     *\r\n     * Requirements:\r\n     *\r\n     * - The divisor cannot be zero.\r\n     */\r\n    function mod(uint256 a, uint256 b, string memory errorMessage) internal pure returns (uint256) {\r\n        require(b != 0, errorMessage);\r\n        return a % b;\r\n    }\r\n\r\n    // babylonian method (https://en.wikipedia.org/wiki/Methods_of_computing_square_roots#Babylonian_method)\r\n    function sqrrt(uint256 a) internal pure returns (uint c) {\r\n        if (a > 3) {\r\n            c = a;\r\n            uint b = add( div( a, 2), 1 );\r\n            while (b < c) {\r\n                c = b;\r\n                b = div( add( div( a, b ), b), 2 );\r\n            }\r\n        } else if (a != 0) {\r\n            c = 1;\r\n        }\r\n    }\r\n\r\n    /*\r\n     * Expects percentage to be trailed by 00,\r\n    */\r\n    function percentageAmount( uint256 total_, uint8 percentage_ ) internal pure returns ( uint256 percentAmount_ ) {\r\n        return div( mul( total_, percentage_ ), 1000 );\r\n    }\r\n\r\n    /*\r\n     * Expects percentage to be trailed by 00,\r\n    */\r\n    function substractPercentage( uint256 total_, uint8 percentageToSub_ ) internal pure returns ( uint256 result_ ) {\r\n        return sub( total_, div( mul( total_, percentageToSub_ ), 1000 ) );\r\n    }\r\n\r\n    function percentageOfTotal( uint256 part_, uint256 total_ ) internal pure returns ( uint256 percent_ ) {\r\n        return div( mul(part_, 100) , total_ );\r\n    }\r\n\r\n    /**\r\n     * Taken from Hypersonic https://github.com/M2629/HyperSonic/blob/main/Math.sol\r\n     * @dev Returns the average of two numbers. The result is rounded towards\r\n     * zero.\r\n     */\r\n    function average(uint256 a, uint256 b) internal pure returns (uint256) {\r\n        // (a + b) / 2 can overflow, so we distribute\r\n        return (a / 2) + (b / 2) + ((a % 2 + b % 2) / 2);\r\n    }\r\n\r\n    function quadraticPricing( uint256 payment_, uint256 multiplier_ ) internal pure returns (uint256) {\r\n        return sqrrt( mul( multiplier_, payment_ ) );\r\n    }\r\n\r\n    function bondingCurve( uint256 supply_, uint256 multiplier_ ) internal pure returns (uint256) {\r\n        return mul( multiplier_, supply_ );\r\n    }\r\n}\r\n\r\n/**\r\n * @dev Interface of the ERC20 standard as defined in the EIP.\r\n */\r\ninterface IERC20 {\r\n    /**\r\n     * @dev Returns the amount of tokens in existence.\r\n     */\r\n    function totalSupply() external view returns (uint256);\r\n\r\n    /**\r\n     * @dev Returns the amount of tokens owned by `account`.\r\n     */\r\n    function balanceOf(address account) external view returns (uint256);\r\n\r\n    /**\r\n     * @dev Moves `amount` tokens from the caller's account to `recipient`.\r\n     *\r\n     * Returns a boolean value indicating whether the operation succeeded.\r\n     *\r\n     * Emits a {Transfer} event.\r\n     */\r\n    function transfer(address recipient, uint256 amount) external returns (bool);\r\n\r\n    /**\r\n     * @dev Returns the remaining number of tokens that `spender` will be\r\n     * allowed to spend on behalf of `owner` through {transferFrom}. This is\r\n     * zero by default.\r\n     *\r\n     * This value changes when {approve} or {transferFrom} are called.\r\n     */\r\n    function allowance(address owner, address spender) external view returns (uint256);\r\n\r\n    /**\r\n     * @dev Sets `amount` as the allowance of `spender` over the caller's tokens.\r\n     *\r\n     * Returns a boolean value indicating whether the operation succeeded.\r\n     *\r\n     * IMPORTANT: Beware that changing an allowance with this method brings the risk\r\n     * that someone may use both the old and the new allowance by unfortunate\r\n     * transaction ordering. One possible solution to mitigate this race\r\n     * condition is to first reduce the spender's allowance to 0 and set the\r\n     * desired value afterwards:\r\n     * https://github.com/ethereum/EIPs/issues/20#issuecomment-263524729\r\n     *\r\n     * Emits an {Approval} event.\r\n     */\r\n    function approve(address spender, uint256 amount) external returns (bool);\r\n\r\n    /**\r\n     * @dev Moves `amount` tokens from `sender` to `recipient` using the\r\n     * allowance mechanism. `amount` is then deducted from the caller's\r\n     * allowance.\r\n     *\r\n     * Returns a boolean value indicating whether the operation succeeded.\r\n     *\r\n     * Emits a {Transfer} event.\r\n     */\r\n    function transferFrom(address sender, address recipient, uint256 amount) external returns (bool);\r\n\r\n    /**\r\n     * @dev Emitted when `value` tokens are moved from one account (`from`) to\r\n     * another (`to`).\r\n     *\r\n     * Note that `value` may be zero.\r\n     */\r\n    event Transfer(address indexed from, address indexed to, uint256 value);\r\n\r\n    /**\r\n     * @dev Emitted when the allowance of a `spender` for an `owner` is set by\r\n     * a call to {approve}. `value` is the new allowance.\r\n     */\r\n    event Approval(address indexed owner, address indexed spender, uint256 value);\r\n}\r\n\r\ncontract OHMCirculatingSupplyContract {\r\n    using SafeMath for uint;\r\n\r\n    bool public isInitialized;\r\n\r\n    address public OHM;\r\n    address public owner;\r\n    address[] public nonCirculatingOHMAddresses;\r\n\r\n    constructor( address _owner ) {\r\n        owner = _owner;\r\n    }\r\n\r\n    function initialize( address _ohm ) external returns ( bool ) {\r\n        require( msg.sender == owner, \"caller is not owner\" );\r\n        require( isInitialized == false );\r\n\r\n        OHM = _ohm;\r\n\r\n        isInitialized = true;\r\n\r\n        return true;\r\n    }\r\n\r\n    function OHMCirculatingSupply() external view returns ( uint ) {\r\n        uint _totalSupply = IERC20( OHM ).totalSupply();\r\n\r\n        uint _circulatingSupply = _totalSupply.sub( getNonCirculatingOHM() );\r\n\r\n        return _circulatingSupply;\r\n    }\r\n\r\n    function getNonCirculatingOHM() public view returns ( uint ) {\r\n        uint _nonCirculatingOHM;\r\n\r\n        for( uint i=0; i < nonCirculatingOHMAddresses.length; i = i.add( 1 ) ) {\r\n            _nonCirculatingOHM = _nonCirculatingOHM.add( IERC20( OHM ).balanceOf( nonCirculatingOHMAddresses[i] ) );\r\n        }\r\n\r\n        return _nonCirculatingOHM;\r\n    }\r\n\r\n    function setNonCirculatingOHMAddresses( address[] calldata _nonCirculatingAddresses ) external returns ( bool ) {\r\n        require( msg.sender == owner, \"Sender is not owner\" );\r\n        nonCirculatingOHMAddresses = _nonCirculatingAddresses;\r\n\r\n        return true;\r\n    }\r\n\r\n    function transferOwnership( address _owner ) external returns ( bool ) {\r\n        require( msg.sender == owner, \"Sender is not owner\" );\r\n\r\n        owner = _owner;\r\n\r\n        return true;\r\n    }\r\n}\r\n",
  "sourcePath": "C:\\defi\\bitdeep\\tempodao\\tempodao-contracts\\contracts\\OHMCirculatingSupplyContract.sol",
  "compiler": {
    "name": "solc",
    "version": "0.7.5+commit.eb77ed08.Emscripten.clang"
  },
  "schemaVersion": "3.4.3",
  "updatedAt": "2021-12-07T18:43:27.609Z",
  "networkType": "ethereum",
  "devdoc": {
    "kind": "dev",
    "methods": {},
    "version": 1
  },
  "userdoc": {
    "kind": "user",
    "methods": {},
    "version": 1
  }
}